:020000020000FC
:02000000FFC13E
:0201A00062C13A
:0200BC00E7C19A
:100400001FEF1093010610930606222710E41093A5
:100410006106109365061FEF109341061093450681
:1004200029D01FEF10930206109341061093610626
:10043000109365061FEF1093A20611E01093A90612
:100440001CE01093AA0612E01093B20611E010937C
:10045000A20078940FD010E4109367061091A806BC
:10046000312F3C70F8CF12E01093000A10E0109387
:10047000A90618951F9310E21093260A13EE109305
:10048000270A11E01093060A1F9108951F9310E0A8
:100490001093000A1093200A1093210A1091A806C5
:1004A000312F3C70383009F005C02395322F30953C
:0E04B0003093440611E01093A9061F91189591
:00000001FF
