S00C00004C6162372E73726563D2
S11300000C94FE000C9424010C9424010C942401FF
S11300100C9424010C9424010C9424010C942401C8
S11300200C9424010C9424010C9424010C942401B8
S11300300C9424010C9424010C9424010C942401A8
S11300400C9424010C9424010C9424010C94240198
S11300500C9447020C9424010C9424010C94240164
S11300600C9424010C9424010C9424010C94240178
S11300700C9424010C9424010C9424010C94240168
S11300800C9424010C9424010C9424010C94240158
S11300900C9424010C9424010C9424010C94240148
S11300A00C9424010C9424010C9424010C94240138
S11300B00C9424010C9424010C9424010C94240128
S11300C00C9424010C9424010C9424010C94240118
S11300D00C9424010C9424010C9424010C94240108
S11300E00C9424010C9424010C9424010C942401F8
S11300F00C9424010C9424010C9424010C942401E8
S11301000C9424010C9424010C9424010C942401D7
S11301100C9424010C9424010C9424010C942401C7
S11301200C9424010C9424010C9424010C942401B7
S11301300C9424010C9424010C9424010C942401A7
S11301400C9424010C9424010C9424010C94240197
S11301500C9424010C9424010C9424010C94240187
S11301600C94D9010C9424010C9424010C942401C2
S11301700C9424010C9424010C9424010C94240167
S11301800C9424010C9424010C9424010C94240157
S11301900C9424010C9424010C9424010C94240147
S11301A00C9424010C9424010C9424010C94240137
S11301B00C9424010C9424010C9424010C94240127
S11301C00C9424010C9424010C9424010C94240117
S11301D00C9424010C9424010C9424010C94240107
S11301E00C9424010C9424010C9424010C942401F7
S11301F00C9424010C9424010C94240111241FBE9A
S1130200CFEFCDBFDFE3DEBF00E00CBF18BE19BEE9
S11302101ABE1BBE14E2A0E0B0E2E4E0F5E000E0A8
S11302200BBF02C007900D92A030B107D9F71BBED7
S113023024E2A0E0B4E201C01D92A630B207E1F7C7
S11302400E94BA010C9480020C940000E0E0F3E0F8
S113025080E2818388E1828389E080830895E0E0FD
S1130260F8E010A211A287E490E086A397A3089572
S113027081E080930008089581E08093A2000895AE
S113028082E0809350008091510081FFFCCF88ED83
S113029084BF81E08093400010924100089580EC77
S11302A0809380010895E0E0F1E0168A89E5828B6D
S11302B081E0838B80E092E0848B958B85EA808B50
S11302C080E880838AE1848F83E0858F168E80E0C6
S11302D092E2808F918F128E0895E0E6F6E088E036
S11302E0818384E08283E0EAF9E080E1838383E030
S11302F0858385EF86838CEC878388E184830895E6
S1130300E0E0F1E0108285E2808B0895E0E0F1E026
S1130310168A89ED828B81E0838B80E092E0848B66
S1130320958B85EA808B80E880838AE1848F83E0E3
S1130330858F168E80E092E2808F918F128E0895C1
S1130340E0E0F1E0168A89ED828B81E0838B80E026
S113035092E0848B958B85EA808B80E880838AE1A8
S1130360848F83E0858F168E80E090E2808F918F5A
S1130370128E08950E9440010E944F010E943C0188
S11303800E946D0178940E942F010E942601109210
S113039060081092610880E49CE980936608909359
S11303A0670881E0809346080E9453010E94380147
S11303B0FFCF1F920F920FB60F92112408B60F921F
S11303C018BE09B60F9219BE0BB60F921BBE2F931F
S11303D03F934F935F936F937F938F939F93AF93C9
S11303E0BF93EF93FF938091A009833791F187E046
S11303F0809340088091002490910124892B91F4EA
S113040080910224909103240097B1F1019711F493
S11304100E94A0010E94380181E090E080930024B2
S113042090930124FF91EF91BF91AF919F918F9190
S11304307F916F915F914F913F912F910F900BBEE0
S11304400F9009BE0F9008BE0F900FBE0F901F9023
S1130450189581E090E080930424909305242091E2
S1130460022430910324232B11F080E090E0809348
S1130470022490930324D6CF0E9486010E9438015F
S113048081E090E08093002490930124CBCF1F92CD
S11304900F920FB60F92112408B60F9218BE09B628
S11304A00F9219BE0BB60F921BBE2F933F934F931F
S11304B05F936F937F938F939F93AF93BF93EF93C8
S11304C0FF93109200080E94800110920024109261
S11304D00124FF91EF91BF91AF919F918F917F91F3
S11304E06F915F914F913F912F910F900BBE0F90A1
S11304F009BE0F9008BE0F900FBE0F901F90189565
S1070500F894FFCF99
S11305042000400060008000A000C000E000000162
S11305142001400160018001A001C001E00100024A
S11305242002400260028002A002C002E002000332
S11305342003400360038003A003C003E00300041A
S11305442004400460048004A004C004E004000502
S11305542005400560058005A005C005E0050006EA
S11305642006400660068006A006C006E0060007D2
S11305742007400760078007A007C007E0070008BA
S11305841F083F085F087F089F08BF08DF08FF08AB
S11305941F093F095F097F099F09BF09DF09FF0993
S11305A41F0A3F0A5F0A7F0A9F0ABF0ADF0AFF0A7B
S11305B41F0B3F0B5F0B7F0B9F0BBF0BDF0BFF0B63
S11305C41F0C3F0C5F0C7F0C9F0CBF0CDF0CFF0C4B
S11305D41F0D3F0D5F0D7F0D9F0DBF0DDF0DFF0D33
S11305E41F0E3F0E5F0E7F0E9F0EBF0EDF0EFF0E1B
S11305F41F0F3F0F5F0F7F0F9F0FBF0FDF0FFF0F03
S1130604DF0FBF0F9F0F7F0F5F0F3F0F1F0FFF0EF3
S1130614DF0EBF0E9F0E7F0E5F0E3F0E1F0EFF0DEB
S1130624DF0DBF0D9F0D7F0D5F0D3F0D1F0DFF0CE3
S1130634DF0CBF0C9F0C7F0C5F0C3F0C1F0CFF0BDB
S1130644DF0BBF0B9F0B7F0B5F0B3F0B1F0BFF0AD3
S1130654DF0ABF0A9F0A7F0A5F0A3F0A1F0AFF09CB
S1130664DF09BF099F097F095F093F091F09FF08C3
S1130674DF08BF089F087F085F083F081F080008B9
S1130684E007C007A00780076007400720070007AA
S1130694E006C006A00680066006400620060006A2
S11306A4E005C005A005800560054005200500059A
S11306B4E004C004A0048004600440042004000492
S11306C4E003C003A003800360034003200300038A
S11306D4E002C002A0028002600240022002000282
S11306E4E001C001A001800160014001200100017A
S11306F4E000C000A0008000600040002000000072
S11307040008320864089708C908FB082D095F0922
S11307149009C209F309240A540A840AB40AE30AAC
S1130724120B400B6E0B9B0BC80BF40B200C4B0CE5
S1130734750C9E0CC70CEF0C170D3D0D630D880D45
S1130744AC0DCF0DF10D120E330E520E710E8E0E32
S1130754AA0EC60EE00EF90E110F280F3E0F530F0A
S1130764670F790F8B0F9B0FAA0FB80FC40FD00F0D
S1130774DA0FE30FEA0FF10FF60FFA0FFD0FFF0F75
S1130784FF0FFE0FFC0FF80FF40FEE0FE70FDE0F51
S1130794D50FCA0FBE0FB10FA20F930F820F700FA4
S11307A45D0F490F330F1D0F050FED0ED30EB80E59
S11307B49C0E7F0E610E430E230E020EE00DBD0D42
S11307C49A0D750D500D2A0D030DDB0CB30C8A0C18
S11307D4600C350C0A0CDE0BB20B850B570B290B82
S11307E4FB0ACC0A9C0A6C0A3C0A0B0ADA09A9091A
S11307F4780946091409E208B0087E084B08190868
S1130804E607B40781074F071D07EB06B9068706F9
S113081456062506F405C305930563053305040547
S1130824D604A8047A044D042104F503CA039F03DF
S113083475034C032403FC02D502AF028A02650249
S113084442021F02FD01DC01BC019E01800163011F
S113085447012C011201FA00E200CC00B600A20008
S11308648F007D006C005D004E00410035002A00BD
S11308742100180011000B00070003000100000010
S113088400000200050009000E0015001C002500EC
S11308942F003B0047005500640074008600980054
S11308A4AC00C100D700EE0006011F013901550157
S11308B471018E01AD01CC01ED010E02300253022F
S11308C477029C02C202E8021003380361038A031C
S11308D4B403DF030B04370464049104BF04ED047C
S11308E41C054B057B05AB05DB050C063D066F06B5
S11308F4A006D2060407360768079B07CD0700083D
S9030000FC
