:020000020000FC
:02000000FFC13E
:100400000FEF0DBF0FE30EBFA0E0B0E200E00093DE
:1004100001060FEF0093410600E00093A10600C023
:1004200020910806209344060091A80614E01023AA
:1004300021F018E0102351F0F3CF11D00091A8065D
:1004400014E01023D9F30BD02D93EACF08D00091FC
:10045000A80618E01023D9F302D006D0E1CF1F93ED
:1004600011E02FD01F9108950F931F93C0E0D0E2A9
:100470000091A80618E0102341F00991009344066A
:1004800015E01FD0AC1791F3F3CFE9DF0091A80678
:1004900018E01023D9F3E3DF1F910F9108952F93F4
:1004A0003F9328EF2A9530E13A95203011F02A95B4
:1004B000FCCF303019F028EF3A95F7CF3F912F91CC
:1004C0000895103041F01F931A95E9DF103011F0B4
:0804D0001A95FBCF1F9108955E
:00000001FF
