S00C00004C6162352E73726563D4
S11300000C94FE000C9416010C945C010C941601E3
S11300100C9416010C9416010C9416010C94160100
S11300200C9416010C9416010C9416010C941601F0
S11300300C9416010C9416010C9416010C941601E0
S11300400C9416010C9416010C9416010C941601D0
S11300500C9416010C9416010C9416010C941601C0
S11300600C9416010C9416010C9416010C941601B0
S11300700C9416010C9416010C9416010C941601A0
S11300800C9416010C9416010C9416010C94160190
S11300900C9416010C9416010C9416010C94160180
S11300A00C9416010C9416010C9416010C94160170
S11300B00C9416010C9416010C9416010C94160160
S11300C00C9416010C9416010C9416010C94160150
S11300D00C9416010C9416010C9416010C94160140
S11300E00C9416010C9416010C9416010C94160130
S11300F00C9416010C9416010C9416010C94160120
S11301000C9416010C9416010C9416010C9416010F
S11301100C9416010C9416010C9416010C941601FF
S11301200C9416010C9416010C9416010C941601EF
S11301300C9416010C9416010C9416010C941601DF
S11301400C9416010C9416010C9416010C941601CF
S11301500C9416010C9416010C9416010C941601BF
S11301600C94B1010C9416010C9416010C94160114
S11301700C9416010C9416010C9416010C9416019F
S11301800C9416010C9416010C9416010C9416018F
S11301900C9416010C9416010C9416010C9416017F
S11301A00C9416010C9416010C9416010C9416016F
S11301B00C9416010C9416010C9416010C9416015F
S11301C00C9416010C9416010C9416010C9416014F
S11301D00C9416010C9416010C9416010C9416013F
S11301E00C9416010C9416010C9416010C9416012F
S11301F00C9416010C9416010C94160111241FBEC4
S1130200CFEFCDBFDFE3DEBF00E00CBF18BE19BEE9
S11302101ABE1BBE20E2A0E0B0E201C01D92A730CE
S1130220B207E1F70E9418010C942F020C9400000D
S11302300E94CF01E0EAF6E084E081838583E0E078
S1130240F6E080E182838683E0E6F6E08FEF818347
S11302508583E0E4F6E090EC928381E081879287E5
S11302608093A20078940E9406020E940F0280915B
S113027000208130E1F783E00E942702809104206E
S11302800E942702809102200E942702809103206D
S11302900E942702809106200E9427028091052057
S11302A00E942702809101200E9427028CEF0E9465
S11302B0270210920020DBCF1F920F920FB60F92ED
S11302C0112408B60F9218BE09B60F9219BE0BB6C8
S11302D00F921BBE2F933F934F935F936F937F9324
S11302E08F939F93AF93BF93EF93FF938FEF80937D
S11302F0670688E20E94F4018093042089E20E9448
S1130300F401809302208AE20E94F4018093032086
S11303108BE20E94F401809306208CE20E94F40197
S1130320809305208DE20E94F4018093012081E0F6
S113033080930020FF91EF91BF91AF919F918F9196
S11303407F916F915F914F913F912F910F900BBED1
S11303500F9009BE0F9008BE0F900FBE0F901F9014
S113036018951F920F920FB60F92112408B60F9290
S113037018BE0BB60F921BBE8F93EF93FF93E0EA68
S1130380F9E080818083FF91EF918F910F900BBEF4
S11303900F9008BE0F900FBE0F901F90189588EB1A
S11303A08093A1068CE58093C00B08958093C30BC2
S11303B0E0ECFBE082818823ECF78091C30B089585
S11303C00F931F93CF93DF93062FC0EAD6E018E074
S11303D01E830E94D601802F0E94D6011D83DF91C7
S11303E0CF911F910F9108951F93CF93DF93C0EA8C
S11303F0D6E018E01E8380680E94D6018FEF0E9429
S1130400D6011D83DF91CF911F91089568E983E29E
S11304100E94E00167E980E20E94E0010895E0E6BD
S1130420F6E088E0818384E08283E0EAF0E0828180
S113043082608283E0EAF9E080E2838383E3858358
S11304408BE0868380E9878388E184830895E0EAEA
S1130450F9E0918195FFFDCF8093A0090895F89468
S1050460FFCFC8
S9030000FC
