S00F00004C61625175697A2E737265635D
S11300000C94FE000C9416010C9400020C9416013E
S11300100C9416010C9416010C9416010C94160100
S11300200C9416010C9416010C9416010C941601F0
S11300300C9416010C9416010C9416010C941601E0
S11300400C9416010C9416010C9416010C941601D0
S11300500C9416010C9416010C9416010C941601C0
S11300600C9416010C9416010C9416010C941601B0
S11300700C9416010C9416010C9416010C941601A0
S11300800C9416010C9416010C9416010C94160190
S11300900C9416010C9416010C9416010C94160180
S11300A00C9416010C9416010C9416010C94160170
S11300B00C9416010C9416010C9416010C94160160
S11300C00C9416010C9416010C9416010C94160150
S11300D00C9416010C9416010C9416010C94160140
S11300E00C9416010C9416010C9416010C94160130
S11300F00C9416010C9416010C9416010C94160120
S11301000C9416010C9416010C9416010C9416010F
S11301100C9416010C9416010C9416010C941601FF
S11301200C9416010C9416010C9416010C941601EF
S11301300C9416010C9416010C9416010C941601DF
S11301400C9416010C9416010C9416010C941601CF
S11301500C9416010C9416010C9416010C941601BF
S11301600C9416010C9416010C9416010C941601AF
S11301700C9416010C9416010C9416010C9416019F
S11301800C9416010C9416010C9416010C9416018F
S11301900C9416010C9416010C9416010C9416017F
S11301A00C9416010C9416010C9416010C9416016F
S11301B00C9416010C9416010C9416010C9416015F
S11301C00C9416010C9416010C9416010C9416014F
S11301D00C9416010C9416010C9416010C9416013F
S11301E00C9416010C9416010C9416010C9416012F
S11301F00C9416010C9416010C94160111241FBEC4
S1130200CFEFCDBFDFE3DEBF00E00CBF18BE19BEE9
S11302101ABE1BBE20E2A0E0B0E201C01D92A631CE
S1130220B207E1F70E9418010C94F4020C94000048
S11302300E949402E0EAF6E084E081838583E0E0B2
S1130240F6E080E182838683E0E6F6E08FEF818347
S11302508583E0E4F6E090EC928381E081879287E5
S11302608093A20078940E94CB020E94CB020E9449
S1130270D40204E510E0C2E4D0E00F2EFAE7AF2E7A
S1130280B12CF02D0F2EF6E4CF2ED12CF02D0F2E05
S1130290F2E5EF2EF12CF02D0F2EFCE48F2E912C95
S11302A0F02D80910020909101200197D1F7809149
S11302B0042090910520CC977CF0809104209091AB
S11302C005208734910544F400930A2010930B20F1
S11302D0109200201092012080910420909105201A
S11302E0843B91057CF08091042090910520883C0A
S11302F0910544F4C0930A20D0930B20109200205F
S1130300109201208091042090910520853F910551
S113031044F080910420909105208F3F910579F05D
S113032074F0809104209091052099230CF45DC011
S1130330809104209091052045970CF056C080913F
S1130340062090910720843B91057CF08091062043
S1130350909107208D3D910544F480920A2090925B
S11303600B20109200201092012080910620909181
S113037007208D977CF08091062090910720873488
S1130380910544F4E0920A20F0920B201092002090
S1130390109201208091142090911520C7977CF031
S11303A080911420909115208C34910544F4C092CE
S11303B00A20D0920B2010920020109201208091EC
S11303C01420909115208E3B91057CF0809114208F
S11303D090911520833D910544F4A0920A20B09297
S11303E00B20109200201092012080910A209091FD
S11303F00B200E94EC02109200201092012051CF99
S11304001F920F920FB60F92112408B60F9218BEC6
S113041009B60F9219BE0BB60F921BBE2F933F93D2
S11304204F935F936F937F938F939F93AF93BF93F8
S1130430EF93FF9388E20E94B90290E080930E202C
S113044090930F2089E20E94B90290E080930620E5
S1130450909307208AE20E94B90290E080930C20D6
S113046090930D208BE20E94B90290E080931420B7
S1130470909315208CE20E94B90290E080931220A0
S1130480909313208DE20E94B90290E0809304209F
S11304909093052020910E2030910F20809106200A
S11304A090910720820F931F809302209093032042
S11304B020910C2030910D208091142090911520D2
S11304C0820F931F8093102090931120209112206B
S11304D0309113208091042090910520820F931F66
S11304E0809308209093092081E090E0809300207D
S11304F0909301208FEF80936706FF91EF91BF9156
S1130500AF919F918F917F916F915F914F913F91A7
S11305102F910F900BBE0F9009BE0F9008BE0F9045
S11305200FBE0F901F90189588EB8093A1068CE561
S11305308093C00B08958093C30BE0ECFBE08281B1
S11305408823ECF78091C30B08950F931F93CF93E7
S1130550DF93062FC0EAD6E018E01E830E949B02B8
S1130560802F0E949B021D83DF91CF911F910F91D9
S113057008951F93CF93DF93C0EAD6E018E01E835B
S113058080680E949B028FEF0E949B021D83DF9173
S1130590CF911F91089568E983E20E94A50267E163
S11305A080E20E94A5020895E0E6F6E088E08183F7
S11305B084E08283E0EAF0E0828182608283E0EA80
S11305C0F9E080E2838383E385838BE0868380E99B
S11305D0878388E184830895E0EAF9E0918195FFB7
S10F05E0FDCF8093A0090895F894FFCF8C
S9030000FC
