S00C00004C6162362E73726563D3
S11300000C94FE000C9416010C9416010C94160129
S11300100C9416010C9416010C9416010C94160100
S11300200C9416010C9416010C9416010C941601F0
S11300300C9416010C9416010C9416010C941601E0
S11300400C9416010C9416010C9416010C941601D0
S11300500C9416010C9416010C9416010C941601C0
S11300600C9416010C9416010C9416010C941601B0
S11300700C9416010C9416010C9416010C941601A0
S11300800C9416010C9416010C9416010C94160190
S11300900C9416010C9416010C9416010C94160180
S11300A00C9416010C9416010C9416010C94160170
S11300B00C9416010C9416010C9416010C94160160
S11300C00C9416010C9416010C9416010C94160150
S11300D00C9416010C9416010C9416010C94160140
S11300E00C9416010C9416010C9416010C94160130
S11300F00C9416010C9416010C9416010C94160120
S11301000C9416010C9416010C9416010C9416010F
S11301100C9416010C9416010C9416010C94D00244
S11301200C9416010C9416010C9416010C941601EF
S11301300C9416010C9416010C9416010C941601DF
S11301400C9416010C9416010C9416010C941601CF
S11301500C9416010C9416010C9416010C941601BF
S11301600C9416010C9416010C9416010C941601AF
S11301700C9416010C9416010C9416010C9416019F
S11301800C9416010C9416010C9416010C9416018F
S11301900C9416010C9416010C9416010C9416017F
S11301A00C9416010C9416010C9416010C9416016F
S11301B00C9416010C9416010C9416010C9416015F
S11301C00C9416010C9416010C9416010C9416014F
S11301D00C9416010C9416010C9416010C9416013F
S11301E00C9416010C9416010C9416010C9416012F
S11301F00C9416010C9416010C94160111241FBEC4
S1130200CFEFCDBFDFE3DEBF00E00CBF18BE19BEE9
S11302101ABE1BBE20E2A0E0B0E201C01D92A430D1
S1130220B207E1F70E94A8020C94BB040C940000EE
S113023080E18093010280E38093020283E0809353
S113024020028AE080932102E0E0F2E087E08483E8
S113025081E08093220282E08093030280818160A6
S113026080830895109220081092210889E09DE36C
S11302708093260890932708089585E080930008CA
S113028008957894089581E08093A200089580EC05
S1130290809380010895E0E6F6E080E18183858320
S11302A00895E0E6F6E088E0818384E08283E0EA72
S11302B0F9E080E1838388E1848383E085838BE0B4
S11302C0868380E987830895E0EAF9E0918195FFC8
S11302D0FDCF8093A00908958A30910514F4805DC0
S11302E008958C30910581F034F48A309105B1F091
S11302F00B9741F011C08E30910551F03CF00F97EF
S113030049F00AC082E4089583E4089584E40895DA
S113031085E4089586E4089588E5089581E40895C0
S11303204F925F926F927F92AF92BF92CF92DF9281
S1130330EF92FF920F931F93CF93DF9300D01F92FE
S1130340CDB7DEB769837A838B839C835A01698135
S11303507A818B819C8120E030E0A9010E942504F0
S1130360181624F48BE20E946401B2C08DE20E944C
S11303706401AEC0C114D104E9F469817A818B812E
S11303809C810E9461038B0149805A806B807C8030
S11303909B01772324F422273327261B370B80E382
S11303A0820F0E9464018EE20E946401CC24C394F3
S11303B0D12C22C0B801110F880B990B0E9499030C
S11303C09B01AC01C301B2010E94F40220E030E0C1
S11303D040E251E40E942A042B013C010E94610383
S11303E08B019B01772324F422273327261B370B09
S11303F080E3820F0E94640181E0E81AF10809F0A9
S1130400B9CF80E20E94640186E50E94640180E223
S11304100E94640188E20E94640180E30E946401F6
S113042088E70E9464019501BB2024F42227332726
S11304302A193B097901C90133230CF40F968C0165
S11304401595079515950795159507951595079590
S1130450B801012E000C880B990B0E94990320E02F
S113046030E040E85DE30E942A040E946103CB016E
S11304708F709078992324F40197806F9F6F019671
S11304800E946C010E946401C8018F7090789923C6
S113049024F40197806F9F6F01960E946C010E9463
S11304A06401C7018F709078992324F40197806FB9
S11304B09F6F01960E946C010E94640189E20E9470
S11304C064018AE00E9464018DE00E94640108C016
S11304D00F2EF3E0EF2EF12CF02DC12CD12C4ACFAE
S11304E02496CDBFDEBFDF91CF911F910F91FF9076
S11304F0EF90DF90CF90BF90AF907F906F905F9020
S11305004F900895CF93DF9300D01F92CDB7DEB7FD
S1130510BC01990F880B990B0E94990320E030E0ED
S113052040E859E30E942A0420E030E040EA50E425
S11305300E942A0469837A838B839C8369817A81EC
S11305408B819C812496CDBFDEBFDF91CF9108952E
S11305500E9432010E9441010E9443010E9447010E
S11305600E9418010E944B010E9451010E943D010A
S113057080910020909101200197D1F7C091022031
S1130580D091032080910220909103200E94820246
S1130590AE010E9490011092002010920120E8CF39
S11305A01F920F920FB60F92112408B60F9218BE25
S11305B08F939F9381E090E080930020909301209B
S11305C0809124029091250280930220909303202D
S11305D080E1809367069F918F910F9008BE0F90E2
S11305E00FBE0F901F9018955058BB27AA270E9442
S11305F00C030C94EB030E94DD0338F00E94E40327
S113060020F039F49F3F19F426F40C94DA030EF425
S1130610E095E7FB0C94D403E92F0E94FC0358F304
S1130620BA17620773078407950720F079F4A6F5D3
S11306300C941E040EF4E0950B2EBA2FA02D0B0182
S1130640B90190010C01CA01A0011124FF27591B13
S113065099F0593F50F4503E68F11A16F040A22F19
S1130660232F342F4427585FF3CF4695379527958A
S1130670A795F0405395C9F77EF41F16BA0B620B89
S1130680730B840BBAF09150A1F0FF0FBB1F661FD0
S1130690771F881FC2F70EC0BA0F621F731F841F13
S11306A048F4879577956795B795F7959E3F08F039
S11306B0B0CF9395880F08F09927EE0F97958795FB
S11306C008950E9468036894B1110C941F0408955E
S11306D00E94040488F09F5798F0B92F9927B751C6
S11306E0B0F0E1F0660F771F881F991F1AF0BA95D2
S11306F0C9F714C0B13091F00E941E04B1E008950E
S11307000C941E04672F782F8827B85F39F0B93FFF
S1130710CCF3869577956795B395D9F73EF4909584
S11307208095709561957F4F8F4F9F4F0895E89402
S113073009C097FB3EF490958095709561957F4F25
S11307408F4F9F4F9923A9F0F92F96E9BB279395D3
S1130750F695879577956795B795F111F8CFFAF4E3
S1130760BB0F11F460FF1BC06F5F7F4F8F4F9F4F14
S113077016C0882311F096E911C0772321F09EE872
S1130780872F762F05C0662371F096E8862F70E0D8
S113079060E02AF09A95660F771F881FDAF7880FB2
S11307A09695879597F9089597F99F6780E870E083
S11307B060E008959FEF80EC089500240A941616D3
S11307C0170618060906089500240A94121613063B
S11307D0140605060895092E0394000C11F48823C9
S11307E052F0BB0F40F4BF2B11F460FF04C06F5FE5
S11307F07F4F8F4F9F4F089557FD9058440F551FBB
S113080059F05F3F71F04795880F97FB991F61F08E
S11308109F3F79F087950895121613061406551F05
S1130820F2CF4695F1DF08C0161617061806991F71
S1130830F1CF86957105610508940895E894BB2766
S113084066277727CB0197F908950E94970408F447
S11308508FEF08950E943D040C94EB030E94DD0386
S113086038F00E94E40320F0952311F00C94D40393
S11308700C94DA0311240C941F040E94FC0370F3FB
S1130880959FC1F3950F50E0551F629FF001729F31
S1130890BB27F00DB11D639FAA27F00DB11DAA1F40
S11308A0649F6627B00DA11D661F829F2227B00D8D
S11308B0A11D621F739FB00DA11D621F839FA00D18
S11308C0611D221F749F3327A00D611D231F849F68
S11308D0600D211D822F762F6A2F11249F575040BF
S11308E09AF0F1F088234AF0EE0FFF1FBB1F661F3A
S11308F0771F881F91505040A9F79E3F510580F003
S11309000C94D4030C941F045F3FE4F3983ED4F397
S1130910869577956795B795F795E7959F5FC1F7A6
S1130920FE2B880F911D9695879597F90895990F39
S11309300008550FAA0BE0E8FEEF16161706E807A5
S1130940F907C0F012161306E407F50798F0621BC6
S1130950730B840B950B39F40A2661F0232B242B9B
S1130960252B21F408950A2609F4A140A6958FEFBA
S10D0970811D811D0895F894FFCF46
S9030000FC
