:100000000C94FE000C9424010C9424010C94240103
:100010000C9424010C9424010C9424010C942401CC
:100020000C9424010C9424010C9424010C942401BC
:100030000C9424010C9424010C94D8010C942401F8
:100040000C9424010C9424010C9424010C9424019C
:100050000C9424010C9424010C9424010C9424018C
:100060000C9424010C9424010C9424010C9424017C
:100070000C9424010C9424010C9424010C9424016C
:100080000C9424010C9424010C9424010C9424015C
:100090000C9424010C9424010C9424010C9424014C
:1000A0000C9424010C9424010C9424010C9424013C
:1000B0000C9424010C9424010C9424010C9424012C
:1000C0000C9424010C9424010C9424010C9424011C
:1000D0000C9424010C9424010C9424010C9424010C
:1000E0000C9424010C9424010C9424010C942401FC
:1000F0000C9424010C9424010C9424010C942401EC
:100100000C9424010C9424010C9424010C942401DB
:100110000C9424010C9424010C9424010C94BF0130
:100120000C9424010C9424010C9424010C942401BB
:100130000C9424010C9424010C9424010C942401AB
:100140000C9424010C9424010C9424010C9424019B
:100150000C9424010C9424010C9424010C9424018B
:100160000C94EC010C9424010C9424010C942401B3
:100170000C9424010C9424010C9424010C9424016B
:100180000C9424010C9424010C9424010C9424015B
:100190000C9424010C9424010C9424010C9424014B
:1001A0000C9424010C9424010C9424010C9424013B
:1001B0000C9424010C9424010C9424010C9424012B
:1001C0000C9424010C9424010C9424010C9424011B
:1001D0000C9424010C9424010C9424010C9424010B
:1001E0000C9424010C9424010C9424010C942401FB
:1001F0000C9424010C9424010C94240111241FBE9E
:10020000CFEFCDBFDFE3DEBF00E00CBF18BE19BEED
:100210001ABE1BBE10E2A0E0B0E2E6E3F4E000E0AC
:100220000BBF02C007900D92A230B107D9F71BBED9
:1002300020E2A2E0B0E201C01D92A630B207E1F7D1
:100240000E9480010C9419020C94000080E18093BC
:10025000010280E38093020283E0809320021092E7
:100260002102E0E0F2E087E0848381E080932202D3
:1002700082E080930302808181608083089580EC16
:10028000809380010895109220081092210880E345
:1002900091E1809326089093270881E080930608D7
:1002A000089581E080930008089582E080935000D3
:1002B000E0E5F0E0818181FFFDCF88ED84BFE0E4DF
:1002C000F0E081E0808311820895E0E0F3E01182A4
:1002D00088E1828385E080830895E0E6F6E088E0A7
:1002E000818384E08283E0EAF9E080E1838383E331
:1002F00085838BE186838DEA878388E184830895F3
:100300000E9455010E9426010E9465010E943F0142
:100310000E9443010E9451010E946D018FEF809362
:10032000410681E08093A2007894A4E2B2E0E0E08C
:10033000F3E080910220909103200197D1F78D91F5
:100340009C91119780930420909305201092022095
:1003500010920320858180FFFDCF409104205091B1
:1003600005202091002030910120429FC001439F31
:10037000900D529F900D1124808F918FDACF1F9294
:100380000F920FB60F92112408B60F9218BE8F93DA
:100390009F9381E090E080930220909303209F91AF
:1003A0008F910F9008BE0F900FBE0F901F90189561
:1003B0001F920F920FB60F92112408B60F9218BE1B
:1003C0008F938FEF809347068F910F9008BE0F9009
:1003D0000FBE0F901F9018951F920F920FB60F929D
:1003E000112408B60F9218BE8F939F938091A00995
:1003F000813349F0823371F0803391F41092002000
:10040000109201200DC081E090E080930020909335
:10041000012006C082E090E08093002090930120AC
:100420009F918F910F9008BE0F900FBE0F901F905D
:060430001895F894FFCFBF
:020436000100C3
:00000001FF
