:100000000C94FE000C940E010C940E010C940E0145
:100010000C940E010C940E010C940E010C940E0124
:100020000C940E010C940E010C940E010C940E0114
:100030000C940E010C940E010C940E010C940E0104
:100040000C940E010C940E010C940E010C940E01F4
:100050000C940E010C940E010C940E010C940E01E4
:100060000C940E010C9460010C940E010C940E0182
:100070000C940E010C940E010C940E010C940E01C4
:100080000C940E010C940E010C940E010C940E01B4
:100090000C940E010C940E010C940E010C940E01A4
:1000A0000C940E010C940E010C940E010C940E0194
:1000B0000C940E010C940E010C940E010C940E0184
:1000C0000C940E010C940E010C940E010C940E0174
:1000D0000C940E010C940E010C940E010C940E0164
:1000E0000C940E010C940E010C940E010C940E0154
:1000F0000C940E010C940E010C940E010C940E0144
:100100000C940E010C940E010C940E010C940E0133
:100110000C940E010C940E010C940E010C940E0123
:100120000C940E010C940E010C940E010C940E0113
:100130000C940E010C940E010C940E010C940E0103
:100140000C940E010C940E010C940E010C940E01F3
:100150000C940E010C940E010C940E010C940E01E3
:100160000C940E010C940E010C940E010C940E01D3
:100170000C940E010C940E010C940E010C940E01C3
:100180000C940E010C940E010C940E010C940E01B3
:100190000C940E010C940E010C940E010C940E01A3
:1001A0000C940E010C940E010C940E010C940E0193
:1001B0000C940E010C940E010C940E010C940E0183
:1001C0000C940E010C940E010C940E010C940E0173
:1001D0000C940E010C940E010C940E010C940E0163
:1001E0000C940E010C940E010C940E010C940E0153
:1001F0000C940E010C940E010C940E0111241FBEE0
:10020000CFEFCDBFDFE3DEBF00E00CBF18BE19BEED
:100210001ABE1BBE0E943D010C947E010C9400008E
:10022000CF93DF9300D01F92CDB7DEB719821A8229
:100230001B821C8289819A81AB81BC818138944860
:10024000AE41B105A0F489819A81AB81BC81019650
:10025000A11DB11D89839A83AB83BC8389819A8157
:10026000AB81BC8181389448AE41B10560F32496DE
:10027000CDBFDEBFDF91CF910895E0E6F6E088E0E4
:10028000818384E08283E0EAF0E08281826082837D
:10029000E0EAF9E080E2838383E3858383E0868379
:1002A00086E9878388E1848378948FE08093C1070F
:1002B00007EC17E0CFE0F801C0830E941001FBCFEC
:1002C0001F920F920FB60F92112408B60F9218BE0C
:1002D0000BB60F921BBE8F93EF93FF93E0EAF8E00B
:1002E00080818083FF91EF918F910F900BBE0F90D3
:1002F00008BE0F900FBE0F901F901895F894FFCF77
:00000001FF
