:020000021000EC
:10E000004D616B696E6720796F7572207761792039
:10E01000696E2074686520776F726C6420746F6419
:10E0200061792074616B65732065766572797468B7
:10E03000696E6720796F7527766520676F742E0A81
:10E0400054616B696E67206120627265616B206646
:10E05000726F6D20616C6C20796F757220776F72B2
:10E06000726965732C207375726520776F756C64A7
:10E070002068656C702061206C6F742E0A576F7574
:10E080006C646E277420796F75206C696B652074E1
:10E090006F2067657420617761793F0A536F6D6502
:10E0A00074696D657320796F752077616E74207463
:10E0B0006F20676F0A5768657265206576657279AB
:10E0C000626F6479206B6E6F777320796F75722041
:10E0D0006E616D652C0A616E6420746865792772C3
:10E0E0006520616C7761797320676C616420796F5A
:10E0F000752063616D652E0A596F752077616E6EAC
:10E100006120626520776865726520796F7520638C
:10E11000616E207365652C0A6F75722074726F755D
:10E12000626C65732061726520616C6C2074686537
:10E130002073616D650A596F752077616E6E61207D
:10E140006265207768657265206576657279626FB1
:10E150006479206B6E6F77730A596F7572206E61E8
:10E160006D652E0A596F752077616E6E6120676F3D
:10E170002077686572652070656F706C65206B6EC6
:10E180006F772C0A70656F706C6520617265206115
:10E190006C6C207468652073616D652C0A596F750D
:10E1A0002077616E6E6120676F20776865726520E9
:10E1B0006576657279626F6479206B6E6F77730A2A
:0CE1C000796F7572206E616D652E200075
:020000020000FC
:02000000FFC13E
:1004000001E00093400403E30093E1060093E50656
:100410000FEF0093210700E00093520402E40093E1
:1004200053040DE1009350040ED00FEF0D9301E043
:100430000C93AA950C91FFCF0F93A0E0B0E307E0D7
:1004400009BF0F9108950F93A0E0B0E002E409BF47
:100450000F9108950F930FEF0093200707E3009388
:10046000E1060093E50603E30093E40601E0009350
:100470004004E6E5F4E000E3019307E0008305E0D3
:1004800000935404E2E5F4E000E0019302E4008309
:100490000DE1009350040F9108952F933F9328EF9F
:1004A0002A9530E13A95203011F02A95FCCF303072
:1004B00019F028EF3A95F7CF3F912F91089510301A
:1004C00041F01F931A95E9DF103011F01A95FBCF18
:1004D0001F9108950F93E0E0F0EE01E00BBFCBEC2D
:1004E000D1E0A0E0B0E002E409BF07910D9300C0A5
:1004F000C03011F0CA95F9CFD03019F0DA95CFEFAE
:10050000F4CF0D910D910F9108959DDFCBECD1E0CB
:10051000E0E0F0E200E00BBF0D910D910D910D9127
:060520000D910D910895FC
:00000001FF
