:020000020000FC
:0201600095C147
:0201A0009BC101
:0200BC0014C26C
:02000000FFC13E
:1004000010E410936106109365061FEF10934106E8
:100410001093450655D01FEF1093A20611E01093DC
:10042000A9061CE01093AA0612E01093B20611E090
:100430001093A200789410E710936106109365065C
:1004400001D0FFCF1F9318E010936506109361064B
:1004500013E31093A5091BE01093A60910E910936C
:10046000A70910E11093A30911E01093A20018E16D
:100470001093A40978941F9108950F930091A109F6
:1004800005FFFCCF1093A0090F9108950F931F93C0
:100490001091A009123569F0173439F0123409F0BF
:1004A0000CC010E41093670608C010E210936706B2
:1004B00004C010E11093670600C01F910F911895BA
:1004C0001F931FEF1093260A1FEF1093270A11E0C6
:1004D0001093060A1F91089512E01093000A10E08D
:1004E0001093A90618951F9310E01093000A10931B
:1004F000200A1093210A1091A80612FD05C0239529
:10050000322F30953093440611E01093A9061F91C5
:0205100018953C
:00000001FF
