:100000000C94FE000C9416010C9416010C9416012D
:100010000C9416010C9416010C9416010C94160104
:100020000C9416010C9416010C9416010C941601F4
:100030000C9416010C9416010C9416010C941601E4
:100040000C9416010C9416010C9416010C941601D4
:100050000C9416010C9416010C9416010C941601C4
:100060000C9416010C9416010C9416010C941601B4
:100070000C9416010C9416010C9416010C941601A4
:100080000C9416010C9416010C9416010C94160194
:100090000C9416010C9416010C9416010C94160184
:1000A0000C9416010C9416010C9416010C94160174
:1000B0000C9416010C9416010C9416010C94160164
:1000C0000C9416010C9416010C9416010C94160154
:1000D0000C9416010C9416010C9416010C94160144
:1000E0000C9416010C9416010C9416010C94160134
:1000F0000C9416010C9416010C9416010C94160124
:100100000C9416010C9416010C9416010C94160113
:100110000C9416010C9416010C9416010C94B00169
:100120000C9416010C9416010C9416010C941601F3
:100130000C9416010C9416010C9416010C941601E3
:100140000C9416010C9416010C9416010C941601D3
:100150000C9416010C9416010C9416010C941601C3
:100160000C9416010C9416010C9416010C941601B3
:100170000C9416010C9416010C9416010C941601A3
:100180000C9416010C9416010C9416010C94160193
:100190000C9416010C9416010C9416010C94160183
:1001A0000C9416010C9416010C9416010C94160173
:1001B0000C9416010C9416010C9416010C94160163
:1001C0000C9416010C9416010C9416010C94160153
:1001D0000C9416010C9416010C9416010C94160143
:1001E0000C9416010C9416010C9416010C94160133
:1001F0000C9416010C9416010C94160111241FBEC8
:10020000CFEFCDBFDFE3DEBF00E00CBF18BE19BEED
:100210001ABE1BBE20E2A0E0B0E201C01D92A430D5
:10022000B207E1F70E946C010C94D1010C9400001C
:1002300080E18093010280E38093020283E0809357
:1002400020028AE080932102E0E0F2E087E08483EC
:1002500081E08093220282E08093030280818160AA
:1002600080830895109220081092210880E197E27F
:100270008093260890932708089581E080930008D2
:1002800008957894089581E08093A200089580EC09
:10029000809380010895E0E6F6E080E48183858321
:1002A0000895E0E6F6E088E0818384E08283E0EA76
:1002B000F9E080E1838388E1848383E085838BE0B8
:1002C000868380E987830895E0EAF9E0918195FFCC
:1002D000FDCF8093A00908950E9432010E94410140
:1002E0000E9443010E9447010E9418010E944B0195
:1002F0000E9451010E943D0100E616E0C0E4809199
:100300000020909101200197C1F4C0900220D0906C
:100310000320E0900220F090032083E00E9464011B
:100320008C2D0E9464018F2D0E9464018CEF0E942D
:10033000640110920020109201208091022090917F
:100340000320843D934010F4F801C583809102207E
:10035000909103208D34944090F2F801C683CFCF62
:100360001F920F920FB60F92112408B60F9218BE6B
:100370008F939F9381E090E08093002090930120E1
:100380008091240290912502809302209093032073
:100390009F918F910F9008BE0F900FBE0F901F90EE
:0603A0001895F894FFCF50
:00000001FF
